{
  "contractName": "Lottery",
  "abi": [
    {
      "constant": true,
      "inputs": [],
      "name": "owner",
      "outputs": [
        {
          "name": "",
          "type": "address"
        }
      ],
      "payable": false,
      "stateMutability": "view",
      "type": "function"
    },
    {
      "inputs": [],
      "payable": true,
      "stateMutability": "payable",
      "type": "constructor"
    },
    {
      "constant": false,
      "inputs": [
        {
          "name": "_userAddress",
          "type": "address"
        }
      ],
      "name": "set",
      "outputs": [],
      "payable": false,
      "stateMutability": "nonpayable",
      "type": "function"
    },
    {
      "constant": false,
      "inputs": [],
      "name": "send",
      "outputs": [],
      "payable": false,
      "stateMutability": "nonpayable",
      "type": "function"
    }
  ],
  "bytecode": "0x608060405273e29c5d9340cc3557353febcfbb2239d61759df9b600360006101000a81548173ffffffffffffffffffffffffffffffffffffffff021916908373ffffffffffffffffffffffffffffffffffffffff16021790555034600281905550336000806101000a81548173ffffffffffffffffffffffffffffffffffffffff021916908373ffffffffffffffffffffffffffffffffffffffff1602179055506101e0806100af6000396000f3fe608060405234801561001057600080fd5b50600436106100415760003560e01c80632801617e146100465780638da5cb5b1461008a578063b46300ec146100d4575b600080fd5b6100886004803603602081101561005c57600080fd5b81019080803573ffffffffffffffffffffffffffffffffffffffff1690602001909291905050506100de565b005b610092610122565b604051808273ffffffffffffffffffffffffffffffffffffffff1673ffffffffffffffffffffffffffffffffffffffff16815260200191505060405180910390f35b6100dc610147565b005b80600360006101000a81548173ffffffffffffffffffffffffffffffffffffffff021916908373ffffffffffffffffffffffffffffffffffffffff16021790555050565b6000809054906101000a900473ffffffffffffffffffffffffffffffffffffffff1681565b600360009054906101000a900473ffffffffffffffffffffffffffffffffffffffff1673ffffffffffffffffffffffffffffffffffffffff166108fc6002549081150290604051600060405180830381858888f193505050501580156101b1573d6000803e3d6000fd5b5056fea165627a7a723058207cc59d79098d24a48c5b3da913fa7b5dd2d036b3cc9339e53c227c60e64ac3490029",
  "source": "pragma solidity >=0.4.21 <0.6.0;\n\nimport \"./ERC20Interface.sol\";\nimport \"./DaiToken.sol\";\nimport \"./safemath.sol\";\n\ncontract Lottery\n{\n    address payable public owner; //우리 주소\n    uint256 private _percent;   //persent\n    uint256 balance;    //보낼돈 (msg.value)\n    address payable user = address(0xe29c5D9340cc3557353feBCfbb2239D61759DF9b);   //감독 지금 내 메타마스크  주소\n    constructor() payable public\n    {\n        balance = msg.value;\n        owner = msg.sender;\n    }\n    /* set user Address in java web <will> */\n    function set(address payable _userAddress) public {\n        user = _userAddress;\n    }\n    // if pertsent == 100 -> transfer balance to userAddress\n    function send() public {\n        user.transfer(balance);\n    }\n}",
  "sourcePath": "C:/Users/user/Desktop/blockchain_hakerthon/Ethereum-ClientTest-master/Ethereum-ClientTest-master/web3jClient/solidity/lotteryEx/contracts/Lottery.sol",
  "compiler": {
    "name": "solc",
    "version": "0.5.8+commit.23d335f2.Emscripten.clang"
  },
  "schemaVersion": "3.0.16",
  "updatedAt": "2019-09-25T15:47:33.213Z",
  "devdoc": {
    "methods": {}
  },
  "userdoc": {
    "methods": {}
  }
}