{
  "contractName": "mortal",
  "abi": [
    {
      "constant": false,
      "inputs": [],
      "name": "destroy",
      "outputs": [],
      "payable": false,
      "stateMutability": "nonpayable",
      "type": "function"
    }
  ],
  "bytecode": "0x608060405233600160006101000a81548173ffffffffffffffffffffffffffffffffffffffff021916908373ffffffffffffffffffffffffffffffffffffffff16021790555073c4375b7de8af5a38a93548eb8453a498222c4ff26000806101000a81548173ffffffffffffffffffffffffffffffffffffffff021916908373ffffffffffffffffffffffffffffffffffffffff160217905550610331806100a86000396000f3fe608060405234801561001057600080fd5b506004361061002b5760003560e01c806383197ef014610030575b600080fd5b61003861003a565b005b600160009054906101000a900473ffffffffffffffffffffffffffffffffffffffff1673ffffffffffffffffffffffffffffffffffffffff163373ffffffffffffffffffffffffffffffffffffffff16146100e0576040517f08c379a000000000000000000000000000000000000000000000000000000000815260040180806020018281038252602e8152602001806102d8602e913960400191505060405180910390fd5b6000809054906101000a900473ffffffffffffffffffffffffffffffffffffffff1673ffffffffffffffffffffffffffffffffffffffff1663a9059cbb600160009054906101000a900473ffffffffffffffffffffffffffffffffffffffff166000809054906101000a900473ffffffffffffffffffffffffffffffffffffffff1673ffffffffffffffffffffffffffffffffffffffff166370a08231306040518263ffffffff1660e01b8152600401808273ffffffffffffffffffffffffffffffffffffffff1673ffffffffffffffffffffffffffffffffffffffff16815260200191505060206040518083038186803b1580156101de57600080fd5b505afa1580156101f2573d6000803e3d6000fd5b505050506040513d602081101561020857600080fd5b81019080805190602001909291905050506040518363ffffffff1660e01b8152600401808373ffffffffffffffffffffffffffffffffffffffff1673ffffffffffffffffffffffffffffffffffffffff16815260200182815260200192505050602060405180830381600087803b15801561028257600080fd5b505af1158015610296573d6000803e3d6000fd5b505050506040513d60208110156102ac57600080fd5b8101908080519060200190929190505050503373ffffffffffffffffffffffffffffffffffffffff16fffe4f6e6c792074686520636f6e7472616374206f776e65722063616e2063616c6c20746869732066756e6374696f6ea165627a7a7230582055e5972282933ca1c647bdf5b5edccabd425c110667ed10017e681f3de7965df0029",
  "source": "pragma solidity >=0.4.21 <0.6.0;\r\n\r\ninterface DaiToken {\r\n    function transfer(address dst, uint wad) external returns (bool);\r\n    function balanceOf(address guy) external view returns (uint);\r\n}\r\n\r\ncontract owned {\r\n  DaiToken daitoken;\r\n\taddress owner;\r\n\r\n\tconstructor() public{\r\n\t\towner = msg.sender;\r\n\t\tdaitoken = DaiToken(0xC4375B7De8af5a38a93548eb8453a498222C4fF2); // kovan testnet\r\n\t}\r\n\r\n\tmodifier onlyOwner {\r\n\t\trequire(msg.sender == owner,\r\n\t\t        \"Only the contract owner can call this function\");\r\n\t\t_;\r\n\t}\r\n}\r\n\r\ncontract mortal is owned {\r\n\tfunction destroy() public onlyOwner {\r\n\t    daitoken.transfer(owner, daitoken.balanceOf(address(this)));\r\n\t    selfdestruct(msg.sender);\r\n\t}\r\n}\r\n\r\n\r\n/*\r\n// Sample Contract\r\n\r\n이 솔리디티 파일이랑 safemath.sol ERC20.sol 다 임포트해주고\r\n아래 컨트랙트처럼 balanceOf나 transfer 같은 함수 쓸 때 앞에 daitoken. 붙이면 됨\r\n\r\ncontract DaiFaucet is mortal {\r\n\r\n\tevent Withdrawal(address indexed to, uint amount);\r\n\tevent Deposit(address indexed from, uint amount);\r\n\t\r\n\r\n\t// Give out Dai to anyone who asks\r\n\tfunction withdraw(uint withdraw_amount) public {\r\n\t\t// Limit withdrawal amount\r\n\t\trequire(withdraw_amount <= 0.1 ether);\r\n\t\trequire(daitoken.balanceOf(address(this)) >= withdraw_amount,\r\n\t\t\t\"Insufficient balance in faucet for withdrawal request\");\r\n\t\t// Send the amount to the address that requested it\r\n\t\tdaitoken.transfer(msg.sender, withdraw_amount);\r\n\t\temit Withdrawal(msg.sender, withdraw_amount);\r\n\t}\r\n\t\r\n\t// Accept any incoming amount\r\n\tfunction () external payable {\r\n\t\temit Deposit(msg.sender, msg.value);\r\n\t}\r\n}\r\n*/",
  "sourcePath": "C:\\Users\\user\\Desktop\\blockchain_hakerthon\\Ethereum-ClientTest-master\\Ethereum-ClientTest-master\\web3jClient\\solidity\\lotteryEx\\contracts\\DaiToken.sol",
  "compiler": {
    "name": "solc",
    "version": "0.5.8+commit.23d335f2.Emscripten.clang"
  },
  "schemaVersion": "3.0.16",
  "updatedAt": "2019-09-25T15:47:22.898Z",
  "devdoc": {
    "methods": {}
  },
  "userdoc": {
    "methods": {}
  }
}