{
  "contractName": "MovInfo",
  "abi": [
    {
      "constant": true,
      "inputs": [],
      "name": "index",
      "outputs": [
        {
          "name": "",
          "type": "uint256"
        }
      ],
      "payable": false,
      "stateMutability": "view",
      "type": "function"
    },
    {
      "constant": true,
      "inputs": [
        {
          "name": "",
          "type": "uint256"
        }
      ],
      "name": "movies",
      "outputs": [
        {
          "name": "index",
          "type": "uint256"
        },
        {
          "name": "movId",
          "type": "address"
        },
        {
          "name": "goal",
          "type": "uint256"
        },
        {
          "name": "deadline",
          "type": "uint256"
        },
        {
          "name": "totalDeposit",
          "type": "uint256"
        }
      ],
      "payable": false,
      "stateMutability": "view",
      "type": "function"
    },
    {
      "constant": true,
      "inputs": [],
      "name": "owner",
      "outputs": [
        {
          "name": "",
          "type": "address"
        }
      ],
      "payable": false,
      "stateMutability": "view",
      "type": "function"
    },
    {
      "inputs": [],
      "payable": false,
      "stateMutability": "nonpayable",
      "type": "constructor"
    },
    {
      "constant": false,
      "inputs": [
        {
          "name": "_movId",
          "type": "address"
        },
        {
          "name": "_goal",
          "type": "uint256"
        },
        {
          "name": "_deadline",
          "type": "uint256"
        }
      ],
      "name": "newMovInfo",
      "outputs": [],
      "payable": false,
      "stateMutability": "nonpayable",
      "type": "function"
    }
  ],
  "bytecode": "0x608060405234801561001057600080fd5b5033600360006101000a81548173ffffffffffffffffffffffffffffffffffffffff021916908373ffffffffffffffffffffffffffffffffffffffff160217905550610346806100616000396000f3fe608060405234801561001057600080fd5b506004361061004c5760003560e01c806313409508146100515780632986c0e5146100a9578063404ebf6c146100c75780638da5cb5b14610151575b600080fd5b6100a76004803603606081101561006757600080fd5b81019080803573ffffffffffffffffffffffffffffffffffffffff169060200190929190803590602001909291908035906020019092919050505061019b565b005b6100b161028b565b6040518082815260200191505060405180910390f35b6100f3600480360360208110156100dd57600080fd5b8101908080359060200190929190505050610291565b604051808681526020018573ffffffffffffffffffffffffffffffffffffffff1673ffffffffffffffffffffffffffffffffffffffff1681526020018481526020018381526020018281526020019550505050505060405180910390f35b6101596102f4565b604051808273ffffffffffffffffffffffffffffffffffffffff1673ffffffffffffffffffffffffffffffffffffffff16815260200191505060405180910390f35b60008054905060028190555060006040518060a0016040528060025481526020018573ffffffffffffffffffffffffffffffffffffffff1681526020018481526020018381526020016000815250908060018154018082558091505090600182039060005260206000209060050201600090919290919091506000820151816000015560208201518160010160006101000a81548173ffffffffffffffffffffffffffffffffffffffff021916908373ffffffffffffffffffffffffffffffffffffffff160217905550604082015181600201556060820151816003015560808201518160040155505050505050565b60025481565b6000818154811061029e57fe5b90600052602060002090600502016000915090508060000154908060010160009054906101000a900473ffffffffffffffffffffffffffffffffffffffff16908060020154908060030154908060040154905085565b600360009054906101000a900473ffffffffffffffffffffffffffffffffffffffff168156fea165627a7a72305820d16f0da38dbab2c4e15c9bd1448122278db436882b12d47aff7e31efa3d21eda0029",
  "source": "pragma solidity >=0.4.21 <0.6.0;\r\n\r\nimport \"./ERC20Interface.sol\";\r\nimport \"./DaiToken.sol\";\r\nimport \"./safemath.sol\";\r\n\r\ncontract MovInfo {\r\n\r\n    struct Movie {\r\n        // string title;\r\n        uint index;\r\n        address movId; // wallet address of the movie\r\n        uint goal; // amount of money. type check\r\n        uint deadline;\r\n        uint totalDeposit;\r\n\r\n    }\r\n\r\n    Movie[] public movies;\r\n    mapping (address => Movie) mov;\r\n\r\n    uint public index;\r\n    // address public director;\r\n    address public owner;\r\n\r\n    constructor() public {\r\n        owner = msg.sender;\r\n    }\r\n\r\n    function newMovInfo(address _movId, uint _goal, uint _deadline) public {\r\n        index = movies.length;\r\n        movies.push(Movie(index, _movId, _goal, _deadline, 0));\r\n    }\r\n\r\n    /*\r\n    출력됐으면 좋겠다고 했던 것 같아서 위아래 아무거나 써\r\n    function newMovInfo(address _movId, uint _goal, uint _deadline) public returns(address, uint, uint, uint) {\r\n        index = movies.length;\r\n        movies.push(Movie(index, _movId, _goal, _deadline, 0));\r\n        return (movies[_index].movId, movies[_index].goal, movies[_index].deadline, movies[_index].totalDeposit);\r\n    }\r\n    */\r\n\r\n    /*\r\n    // array testing\r\n    function moviesReturn(uint _index) public view returns(uint) {\r\n        return movies[_index].goal;\r\n    }\r\n    */\r\n\r\n\r\n}",
  "sourcePath": "C:/Users/user/Desktop/blockchain_hakerthon/Ethereum-ClientTest-master/Ethereum-ClientTest-master/web3jClient/solidity/lotteryEx/contracts/MovInfo.sol",
  "compiler": {
    "name": "solc",
    "version": "0.5.8+commit.23d335f2.Emscripten.clang"
  },
  "schemaVersion": "3.0.16",
  "updatedAt": "2019-09-25T15:47:39.757Z",
  "devdoc": {
    "methods": {}
  },
  "userdoc": {
    "methods": {}
  }
}