{
  "contractName": "Reward",
  "abi": [
    {
      "constant": true,
      "inputs": [],
      "name": "director",
      "outputs": [
        {
          "name": "",
          "type": "address"
        }
      ],
      "payable": false,
      "stateMutability": "view",
      "type": "function"
    },
    {
      "constant": true,
      "inputs": [],
      "name": "owner",
      "outputs": [
        {
          "name": "",
          "type": "address"
        }
      ],
      "payable": false,
      "stateMutability": "view",
      "type": "function"
    },
    {
      "inputs": [],
      "payable": false,
      "stateMutability": "nonpayable",
      "type": "constructor"
    },
    {
      "constant": false,
      "inputs": [
        {
          "name": "_title",
          "type": "string"
        },
        {
          "name": "_movId",
          "type": "address"
        },
        {
          "name": "_director",
          "type": "address"
        },
        {
          "name": "_rewardType",
          "type": "string"
        },
        {
          "name": "_rewardDL",
          "type": "uint256"
        },
        {
          "name": "_isGiven",
          "type": "bool"
        }
      ],
      "name": "newRewardInfo",
      "outputs": [],
      "payable": false,
      "stateMutability": "nonpayable",
      "type": "function"
    }
  ],
  "bytecode": "0x608060405234801561001057600080fd5b5033600160006101000a81548173ffffffffffffffffffffffffffffffffffffffff021916908373ffffffffffffffffffffffffffffffffffffffff16021790555061053d806100616000396000f3fe608060405234801561001057600080fd5b50600436106100415760003560e01c80635af82abf146100465780637ab2dbc0146100905780638da5cb5b14610238575b600080fd5b61004e610282565b604051808273ffffffffffffffffffffffffffffffffffffffff1673ffffffffffffffffffffffffffffffffffffffff16815260200191505060405180910390f35b610236600480360360c08110156100a657600080fd5b81019080803590602001906401000000008111156100c357600080fd5b8201836020820111156100d557600080fd5b803590602001918460018302840111640100000000831117156100f757600080fd5b91908080601f016020809104026020016040519081016040528093929190818152602001838380828437600081840152601f19601f820116905080830192505050505050509192919290803573ffffffffffffffffffffffffffffffffffffffff169060200190929190803573ffffffffffffffffffffffffffffffffffffffff1690602001909291908035906020019064010000000081111561019a57600080fd5b8201836020820111156101ac57600080fd5b803590602001918460018302840111640100000000831117156101ce57600080fd5b91908080601f016020809104026020016040519081016040528093929190818152602001838380828437600081840152601f19601f820116905080830192505050505050509192919290803590602001909291908035151590602001909291905050506102a8565b005b610240610446565b604051808273ffffffffffffffffffffffffffffffffffffffff1673ffffffffffffffffffffffffffffffffffffffff16815260200191505060405180910390f35b600260009054906101000a900473ffffffffffffffffffffffffffffffffffffffff1681565b6040518060a001604052808673ffffffffffffffffffffffffffffffffffffffff1681526020018573ffffffffffffffffffffffffffffffffffffffff1681526020018481526020018381526020018215158152506000876040518082805190602001908083835b602083106103335780518252602082019150602081019050602083039250610310565b6001836020036101000a038019825116818451168082178552505050505050905001915050908152602001604051809103902060008201518160000160006101000a81548173ffffffffffffffffffffffffffffffffffffffff021916908373ffffffffffffffffffffffffffffffffffffffff16021790555060208201518160010160006101000a81548173ffffffffffffffffffffffffffffffffffffffff021916908373ffffffffffffffffffffffffffffffffffffffff160217905550604082015181600201908051906020019061041092919061046c565b506060820151816003015560808201518160040160006101000a81548160ff021916908315150217905550905050505050505050565b600160009054906101000a900473ffffffffffffffffffffffffffffffffffffffff1681565b828054600181600116156101000203166002900490600052602060002090601f016020900481019282601f106104ad57805160ff19168380011785556104db565b828001600101855582156104db579182015b828111156104da5782518255916020019190600101906104bf565b5b5090506104e891906104ec565b5090565b61050e91905b8082111561050a5760008160009055506001016104f2565b5090565b9056fea165627a7a723058204d85da86963fdbcac982e4c8af32c86fca5a012370a407a5a210216f6a6275990029",
  "source": "pragma solidity >=0.4.21 <0.6.0;\r\n\r\ncontract Reward {\r\n    struct RewardInfo {\r\n        address movId; // wallet address of the movie\r\n        address director;\r\n        string rewardType;\r\n        uint rewardDL; // reward DeadLine\r\n        bool isGiven; // true if all the bettors got rewards\r\n    }\r\n\r\n    mapping (string => RewardInfo) rewards;\r\n\r\n    address public owner;\r\n    address public director;\r\n    //string public title;\r\n\r\n    constructor() public {\r\n        owner = msg.sender;\r\n    }\r\n\r\n    function newRewardInfo(string memory _title, address _movId, address _director,\r\n                             string memory _rewardType,  uint _rewardDL, bool _isGiven) public {\r\n        rewards[_title] = RewardInfo(_movId, _director, _rewardType, _rewardDL, _isGiven);\r\n    }\r\n\r\n    // // now == block.timestamp (uint type)\r\n    // function checkReward(string memory _title) public view returns (bool) {\r\n    //     require(now >= rewards[_title].rewardDL, \"[ERROR!] days left\");\r\n    //     return rewards[_title].isGiven;\r\n    // }\r\n}",
  "sourcePath": "C:/Users/user/Desktop/blockchain_hakerthon/Ethereum-ClientTest-master/Ethereum-ClientTest-master/web3jClient/solidity/lotteryEx/contracts/Reward.sol",
  "compiler": {
    "name": "solc",
    "version": "0.5.8+commit.23d335f2.Emscripten.clang"
  },
  "schemaVersion": "3.0.16",
  "updatedAt": "2019-09-25T15:47:46.987Z",
  "devdoc": {
    "methods": {}
  },
  "userdoc": {
    "methods": {}
  }
}